:0E00000002EF00F0818E05EF00F0F2EF09F044
:100F0000000100100000010010303132333435365A
:100F100037383961626364656600202020204E45C1
:100F2000432050524F544F434F4C004543453437B4
:100F300031204952204465636F6465004E4543206B
:100F400050726F746F2C20426567696E0046554C75
:100F50004C20434F44453A200020202020200025EB
:030F600078000016
:100F6400CAEC09F0848C8A8C000E236E000E226E6B
:100F7400FE0E216E010E206E0B0E176E260E166EDF
:100F84005E0EE82EFED7162EFCD7172EFAD72B0EA0
:100F9400086E0F0E096EA9EC08F03C0E086E0F0ED9
:100FA400096EA9EC08F08FAE06D0FDD7232A100EE7
:100FB400E82EFED700D08FBE03D0C70E2364F6D729
:100FC400000E236E05D0232A100EE82EFED700D083
:100FD4008FAE03D0630E2364F6D7000E226E1F0E6D
:100FE400226401D062D0000E236E05D0232A100E95
:100FF400E82EFED700D08FBE03D00D0E2364F6D7A3
:10100400000E236E05D0232A100EE82EFED700D042
:101014008FAE03D0270E2364F6D7140E236422D098
:1010240022500008166E1F0E1626010E176E000EB3
:10103400186E162A03D0D89017361836162EFBD7FA
:1010440017C019F018C01AF0000E1ABEFF0E1B6E5E
:101054001C6E195024121A5025121B5026121C50B3
:10106400271221D022500008166E1F0E1626010EDC
:10107400176E000E186E162A03D0D890173618363D
:10108400162EFBD7171C196E181C1A6E1B6A1ABE73
:101094001B061B501C6E195024161A5025161B5083
:1010A40026161C502716222A9AD724C01DF025C0C4
:1010B4001EF024C016F025C017F026C018F027C073
:1010C40019F0050E05D0D89019321832173216329D
:1010D400E82EF9D716501F6E2150EBEC09F0205082
:1010E400EBEC09F01A0E086E0F0E096EA9EC08F06D
:1010F4002150EBEC09F0C00EEBEC09F04D0E086E3C
:101104000F0E096EA9EC08F05F0E086E0F0E096E43
:1011140024C00AF025C00BF026C00CF027C00DF047
:10112400A9EC08F0590E086E0F0E096EA9EC08F030
:101134008A9C020E176E040E166EBA0EE82EFED7A7
:10114400162EFCD7172EFAD700D08A8C2CD70A0E6D
:101154000F6E000E106E75D0250E1518D8B404D07D
:101164001550F8EC09F06DD0000E0E6E08C0F6FFB5
:1011740009C0F7FF084A092A000EF86E0800F5CFE7
:1011840015F01550000AD8B41200780AD8A459D022
:101194000FC0D9FF10C0DAFFDECF12F0DDCF13F09D
:1011A400020E0F26000E1022010E156E040E1518E5
:1011B400D8B415D01550020D010EF324F66E0F0E9F
:1011C400F420F76EF86A000EF8220900F550125C5C
:1011D4000900F5501358D8A002D0152AE7D715C036
:1011E40014F02BD012C001F013C002F01450020D01
:1011F400010EF324F66E0F0EF420F76EF86A000E5B
:10120400F8220900F5CF03F00A00F5CF04F080ECD2
:1012140009F001500F0B116E1150010D090EF3244A
:10122400F66E0F0EF420F76EF86A000EF82208002E
:10123400F5CF15F01550F8EC09F014061428D8A4CD
:10124400D1D708C0F6FF09C0F7FF084A092A000EE3
:10125400F86E0800F5CF15F01550D8B412007CD7FD
:10126400000E836E000E846E000E856E8868BF0EBD
:10127400896EBE0E8A6E770E0F01216F0F011969F8
:101284000F011169000E0F012D6F000E0F01186F71
:10129400000E0F01106F000E0F01206F000E0F01E2
:1012A4000F6F000E0F01176F000E0F011F6F000E5E
:1012B400F2BE010E016EF29E550E0E01A06FAA0E33
:1012C4000E01A06F0E01A091090E0E01F76F070E1B
:1012D4000E01FD6F0E01AB81AB83AB95AB97AB8970
:1012E400550E0E01A06FAA0E0E01A06F0E01A08173
:1012F40001A002D0F28E1200F29E1200000E066EC1
:10130400000E056E03500410D8B41CD0010E076EF5
:1013140004D0D89003360436072A04AEFAD7D890FE
:10132400053606360350015C04500258D8A005D097
:101334000350015E0450025A0580D89004320332EF
:10134400072EEDD705C001F006C002F01200000E12
:10135400BD6E010EBF6E000EBE6E000EC06EFE0EA0
:10136400BC6E000EBB6E0E01CE93FDEC09F01200B4
:10137400600E0E01D86F000E0E01DA6F000E0E0122
:10138400DC6F020E0E01DE6F000E0E01DD6F120027
:1013940032EC09F0BAEC09F0D5EC09F0A9EC09F04B
:1013A400E0EC09F01200800EA56E7F0EA46E400ED4
:1013B400A36EAE50CF0B1009AE6E1200080E9F6ED6
:1013C400800E9D6E240E9E6E670E9B6E000E9C6EAC
:1013D4001200016E0E01CDA9FDD701C09AFF1200C3
:1013E4002A6A296A286A0001B2EF07F0026E0250E5
:0A13F400EBEC09F01200BD8E1200B0
:020000040020DA
:10000000FF0FFF0FFF0FFF0FFF0FFF0FFF0FFF0F80
:020000040030CA
:0C000000ECFFFFFF9FFFFFFFFFFFFFFF73
:00000001FF
